:0400000007EF00F016
:0A0008006F820BED08F08FEF0DF092
:10100000003738392F3435362A3132332D23303DED
:051010002B2569000022
:101016000600FACF69F0FBCF6AF0D9CF6BF0DACFD2
:101026006CF0F3CF6DF0F4CF6EF0F2A81DEF08F080
:101036001FEF08F028EF08F0F2A224EF08F026EFE1
:1010460008F028EF08F00CEC0EF0F0A62DEF08F0F3
:101056002FEF08F038EF08F0F0A034EF08F036EF85
:1010660008F038EF08F00AEC0EF0F0A83DEF08F0B3
:101076003FEF08F048EF08F0F0A244EF08F046EF23
:1010860008F048EF08F008EC0EF0F2A64DEF08F075
:101096004FEF08F06AEF08F0F2A054EF08F056EFB1
:1010A60008F06AEF08F081A85BEF08F05DEF08F042
:1010B6006AEF08F02204D8A463EF08F065EF08F0A1
:1010C6006AEF08F0000E226E010E5AEC0CF0F2A642
:1010D6006FEF08F071EF08F08CEF08F0F2A076EFF2
:1010E60008F078EF08F08CEF08F081B87DEF08F093
:1010F6007FEF08F08CEF08F02250D8A485EF08F0B7
:1011060087EF08F08CEF08F0010E226E000E5AEC05
:101116000CF0F2A691EF08F093EF08F0AEEF08F0AE
:10112600F2A098EF08F09AEF08F0AEEF08F081AA67
:101136009FEF08F0A1EF08F0AEEF08F02104D8A465
:10114600A7EF08F0A9EF08F0AEEF08F0000E216E49
:10115600010E1BEC0CF0F2A6B3EF08F0B5EF08F0A9
:10116600D0EF08F0F2A0BAEF08F0BCEF08F0D0EF2D
:1011760008F081BAC1EF08F0C3EF08F0D0EF08F02D
:101186002150D8A4C9EF08F0CBEF08F0D0EF08F053
:10119600010E216E000E1BEC0CF0F2A6D5EF08F046
:1011A600D7EF08F0F2EF08F0F2A0DCEF08F0DEEF80
:1011B60008F0F2EF08F081ACE3EF08F0E5EF08F095
:1011C600F2EF08F02004D8A4EBEF08F0EDEF08F0FA
:1011D600F2EF08F0000E206E010EDCEC0BF0F2A62A
:1011E600F7EF08F0F9EF08F014EF09F0F2A0FEEFC0
:1011F60008F000EF09F014EF09F081BC05EF09F0E3
:1012060007EF09F014EF09F02050D8A40DEF09F00C
:101216000FEF09F014EF09F0010E206E000EDCEC62
:101226000BF0F2A619EF09F01BEF09F036EF09F003
:10123600F2A020EF09F022EF09F036EF09F081AEB7
:1012460027EF09F029EF09F036EF09F01F04D8A4BB
:101256002FEF09F031EF09F036EF09F0000E1F6E9F
:10126600010E9DEC0BF0F2A63BEF09F03DEF09F005
:1012760058EF09F0F2A042EF09F044EF09F058EFF9
:1012860009F081BE49EF09F04BEF09F058EF09F07C
:101296001F50D8A451EF09F053EF09F058EF09F0A9
:1012A600010E1F6E000E9DEC0BF06EC0F4FF6DC0BC
:1012B600F3FF6CC0DAFF6BC0D9FF6AC0FBFF69C0E1
:1012C600FAFF6F921100010E0001866F8051D8B4AB
:1012D6006FEF09F071EF09F081EF09F08051D96ED7
:1012E600DA6ADF30E832E832070B816F070E816574
:1012F6007FEF09F081EF09F0DAEF09F0000E866F53
:10130600FAEF09F08051D96EDA6ADF30E832E83256
:10131600070B816F010E826F812B94EF09F0D89035
:101326008237812F92EF09F000018251FF0A836F05
:101336008051D96EDA6ADF50070B020DF350150F94
:10134600D96EDA6ADECF84F0DDCF85F084C0D9FFAE
:1013560085C0DAFF8351DF16FAEF09F08051D96EA6
:10136600DA6ADF30E832E832070B816F010E826FEE
:10137600812BC0EF09F0D8908237812FBEEF09F09C
:1013860000018051D96EDA6ADF50070B020DF35067
:10139600150FD96EDA6ADECF83F0DDCF84F083C015
:1013A600D9FF84C0DAFF8251DF12FAEF09F08051CB
:1013B600D96EDA6ADFBCE2EF09F0E5EF09F0010E5B
:1013C600E6EF09F0000E816F826B8251000AD8B4F5
:1013D600EFEF09F081EF09F08151000AD8B485EFEB
:1013E60009F0010AD8B4B1EF09F081EF09F086518E
:1013F600120000018751D8A403EF0AF005EF0AF0A6
:1014060009EF0AF0000E8A6F8DEF0AF0F290F29063
:10141600F296F28EF28C87C080F066EC09F066EFE9
:101426000AF08751D96EDA6A020ED926DECF4DF060
:10143600DDCF4EF08751D96EDA6A040ED926DECF9B
:101446004BF0DDCF4CF08AEF0AF08751D96EDA6A9D
:10145600020ED926DECF49F0DDCF4AF08751D96E8C
:10146600DA6A040ED926DECF47F0DDCF48F08AEFE0
:101476000AF08751D96EDA6A020ED926DECF45F018
:10148600DDCF46F08751D96EDA6A040ED926DECF53
:1014960043F0DDCF44F08AEF0AF08751D96EDA6A5D
:1014A600020ED926DECF41F0DDCF42F08751D96E4C
:1014B600DA6A040ED926DECF3FF0DDCF40F08AEFA0
:1014C6000AF08AEF0AF000018751D96EDA6ADF3036
:1014D600E832E832070B886F896B8951000AD8B465
:1014E60077EF0AF064EF0AF08851040AD8B414EFD3
:1014F6000AF0010AD8B428EF0AF0030AD8B43CEF80
:101506000AF0010AD8B450EF0AF064EF0AF0F28646
:10151600010E8A6F8A511200010E0001876F8051F9
:10152600D8B498EF0AF09AEF0AF0AAEF0AF08051C1
:10153600D96EDA6ADF30E832E832070B826F070EBF
:101546008265A8EF0AF0AAEF0AF003EF0BF0000E8F
:10155600876F18EF0BF08051D96EDA6ADF30E83208
:10156600E832070B826F010E836F822BBDEF0AF004
:10157600D8908337822FBBEF0AF000018351FF0A10
:10158600846F8051D96EDA6ADF50070B020DF35073
:101596000B0FD96EDA6ADECF85F0DDCF86F085C017
:1015A600D9FF86C0DAFF8451DF1618EF0BF08051A1
:1015B600D96EDA6ADF30E832E832070B826F010E45
:1015C600836F822BE9EF0AF0D8908337822FE7EFFB
:1015D6000AF000018051D96EDA6ADF50070B020D5E
:1015E600F3500B0FD96EDA6ADECF84F0DDCF85F0CB
:1015F60084C0D9FF85C0DAFF8351DF1218EF0BF0E4
:101606008151826F836B8351000AD8B40DEF0BF0C2
:10161600AAEF0AF08251000AD8B4AEEF0AF0010A26
:10162600D8B4DAEF0AF0AAEF0AF0875112005E503A
:10163600D8B420EF0BF022EF0BF032EF0BF05E5038
:10164600D96EDA6ADF30E832E832070B606E070ED1
:10165600606430EF0BF032EF0BF087EF0BF09CEF8E
:101666000BF05E50D96EDA6ADF30E832E832070BEB
:10167600606E010E616E602A43EF0BF0D890613602
:10168600602E41EF0BF06150FF0A626E5E50D96E1C
:10169600DA6ADF50070B020DF3500B0FD96EDA6AC8
:1016A600DECF63F0DDCF64F063C0D9FF64C0DAFF3C
:1016B6006250DF169CEF0BF05E50D96EDA6ADF30AF
:1016C600E832E832070B606E010E616E602A6EEF3B
:1016D6000BF0D8906136602E6CEF0BF05E50D96E31
:1016E600DA6ADF50070B020DF3500B0FD96EDA6A78
:1016F600DECF62F0DDCF63F062C0D9FF63C0DAFFF0
:101706006150DF129CEF0BF05F50606E616A6150B2
:10171600000AD8B491EF0BF032EF0BF06050000ADC
:10172600D8B434EF0BF0010AD8B45FEF0BF032EF08
:101736000BF01200686EF2906850D8A4A5EF0BF07B
:10174600A7EF0BF0BEEF0BF03F504010D8B4AEEF52
:101756000BF0B0EF0BF0DBEF0BF002D8BCEF0BF0A9
:101766000500FA6E3F50FD6E4050FE6EFF6AFA505D
:101776001200DBEF0BF06804D8A4C4EF0BF0C6EF41
:101786000BF0DBEF0BF041504210D8B4CDEF0BF06D
:10179600CFEF0BF0DBEF0BF002D8DBEF0BF0050021
:1017A600FA6E4150FD6E4250FE6EFF6AFA5012000C
:1017B6001200686EF2906850D8A4E4EF0BF0E6EFE2
:1017C6000BF0FDEF0BF043504410D8B4EDEF0BF0E7
:1017D600EFEF0BF01AEF0CF002D8FBEF0BF0050061
:1017E600FA6E4350FD6E4450FE6EFF6AFA501200C8
:1017F6001AEF0CF06804D8A403EF0CF005EF0CF018
:101806001AEF0CF045504610D8B40CEF0CF00EEF62
:101816000CF01AEF0CF002D81AEF0CF00500FA6E75
:101826004550FD6E4650FE6EFF6AFA5012001200D9
:10183600686EF2906850D8A423EF0CF025EF0CF0F8
:101846003CEF0CF047504810D8B42CEF0CF02EEFBC
:101856000CF059EF0CF002D83AEF0CF00500FA6ED6
:101866004750FD6E4850FE6EFF6AFA50120059EF5F
:101876000CF06804D8A442EF0CF044EF0CF059EFDA
:101886000CF049504A10D8B44BEF0CF04DEF0CF069
:1018960059EF0CF002D859EF0CF00500FA6E4950DA
:1018A600FD6E4A50FE6EFF6AFA5012001200686E14
:1018B600F2906850D8A462EF0CF064EF0CF07BEF66
:1018C6000CF04B504C10D8B46BEF0CF06DEF0CF0E5
:1018D60098EF0CF002D879EF0CF00500FA6E4B5039
:1018E600FD6E4C50FE6EFF6AFA50120098EF0CF037
:1018F6006804D8A481EF0CF083EF0CF098EF0CF09D
:101906004D504E10D8B48AEF0CF08CEF0CF098EFD7
:101916000CF002D898EF0CF00500FA6E4D50FD6EF3
:101926004E50FE6EFF6AFA501200120000018B51F3
:10193600D8A4A0EF0CF0A2EF0CF0A4EF0CF0CFEFC0
:101946000CF05DC08DF08B51D96EDA6ADF50070B53
:101956008C6F8D518C19F80B8C198D6F8B51D96E3C
:10196600DA6ADF30E832E832070B8C6F8C478C4737
:101976008C478D518C19C70B8C198D6F8D9D8B5192
:10198600D96EDA6ADFAC02D08D8F02D000018D9F4E
:101996008D0E886F3EEC0DF012006550D8A4D6EF80
:1019A6000CF0D8EF0CF0DAEF0CF006EF0DF05BC0A0
:1019B60067F06550D96EDA6ADF50070B666E6750BE
:1019C6006618F80B6618676E6550D96EDA6ADF30EE
:1019D600E832E832070B666E66466646664667502C
:1019E6006618C70B6618676E679C6550D96EDA6A0B
:1019F600DFAC02D0678E01D0679E670E5E6E000E6A
:101A06005F6E1AEC0BF012006550D8A40DEF0DF0C6
:101A16000FEF0DF011EF0DF03DEF0DF05CC067F02C
:101A26006550D96EDA6ADF50070B666E6750661826
:101A3600F80B6618676E6550D96EDA6ADF30E832E1
:101A4600E832070B666E6646664666466750661857
:101A5600C70B6618676E679C6550D96EDA6ADFAC8D
:101A660002D0678E01D0679E670E5E6E010E5F6EB6
:101A76001AEC0BF0120000018851D8B445EF0DF0B6
:101A860047EF0DF057EF0DF08851D96EDA6ADF3067
:101A9600E832E832070B896F070E896555EF0DF0BE
:101AA60057EF0DF05BEF0DF0000E8A6F6EEF0DF045
:101AB60088C080F066EC09F000018A6F88C080F06B
:101AC6008851D96EDA6A000EDFBE010E816F8FEC87
:101AD6000AF000018A6F8A511200800F810F820F6F
:101AE600830F840F890F8A0F8B0F8C0F8D0F920F28
:101AF600930F940F950F960F010101017901061CB2
:101B0600DE1B7101E81BC01B6901F21BCA1B6101C8
:101B1600FC1BD41B1A120A02E00EF66E1A0EF76EA2
:101B2600000EF86E00EE01F010EE3EF00900F5CF63
:101B3600EEFFE550E150FAE100EE3FF01F0EEE6ACF
:101B4600E806FDE16F906F920001D8EF0DF0350EBB
:101B56000001876FFCEC09F0556E2F0E0001876FB0
:101B6600FCEC09F0556E290E0001876FFCEC09F0BC
:101B7600556E230E0001876FFCEC09F0556E1200BE
:101B86003E0E00018B6F99EC0CF03D0E00018B6F41
:101B960099EC0CF03C0E00018B6F99EC0CF03B0EAF
:101BA60000018B6F99EC0CF01200C3EC0DF0AAEC5F
:101BB6000DF0DCEF0DF007EF00F03B0E656E07EC65
:101BC6000DF012003D0E656ED0EC0CF012003D0ECD
:101BD600656E07EC0DF012003B0E656ED0EC0CF056
:101BE60012003C0E656E07EC0DF012003E0E656E9F
:101BF600D0EC0CF012003E0E656E07EC0DF01200F4
:101C06003C0E656ED0EC0CF01200F0921200F090D3
:061C16001200F292120020
:020000040020DA
:08000000FFFFFFFFFFFFFFFF00
:020000040030CA
:0E000000FF02091EFF8181FF0FC00FE00F40BD
:00000001FF
