:0400000007EF00F016
:0A00080060820BED0AF00AEF0CF025
:10100000003738392F3435362A3132332D23303DED
:051010002B2569000022
:10101600010E496E4350D8B413EF08F015EF08F0EF
:1010260025EF08F04350D96EDA6ADF30E832E8324D
:10103600070B446E070E446423EF08F025EF08F013
:101046007CEF08F0000E496E9CEF08F04350D96E15
:10105600DA6ADF30E832E832070B446E010E456E7D
:10106600442A38EF08F0D8904536442E36EF08F07B
:101076004550FF0A466E4350D96EDA6ADF50070BB9
:10108600020DF350150FD96EDA6ADECF47F0DDCFC9
:1010960048F047C0D9FF48C0DAFF4650DF169CEF3C
:1010A60008F04350D96EDA6ADF30E832E832070BCF
:1010B600446E010E456E442A63EF08F0D89045361B
:1010C600442E61EF08F04350D96EDA6ADF50070B01
:1010D600020DF350150FD96EDA6ADECF46F0DDCF7A
:1010E60047F046C0D9FF47C0DAFF4550DF129CEFF4
:1010F60008F04350D96EDA6ADFBC84EF08F087EF58
:1011060008F0010E88EF08F0000E446E456A45505F
:10111600000AD8B491EF08F025EF08F04450000A11
:10112600D8B429EF08F0010AD8B454EF08F025EF37
:1011360008F0495012004350D8A4A4EF08F0A6EFD7
:1011460008F00CEF09F0000E466E2AEF09F0435046
:10115600D96EDA6A010ED926DF50D8A4B5EF08F0A9
:10116600B7EF08F0BAEF08F0F19CC8EF08F043506B
:10117600D96EDA6A010ED926DE04D8A4C5EF08F0C6
:10118600C7EF08F0C8EF08F0F18C010E466E2AEFA3
:1011960009F04350D96EDA6A010ED926DF50D8A479
:1011A600D7EF08F0D9EF08F0DCEF08F0F19AC8EFB6
:1011B60008F04350D96EDA6A010ED926DE04D8A4A7
:1011C600E7EF08F0E9EF08F0C8EF08F0F18AC8EF9A
:1011D60008F04350D96EDA6A010ED926DF50D8A43A
:1011E600F7EF08F0F9EF08F0FCEF08F0F198C8EF18
:1011F60008F04350D96EDA6A010ED926DE04D8A467
:1012060007EF09F009EF09F0C8EF08F0F188C8EF19
:1012160008F04350D96EDA6A020ED926DF50446EC2
:10122600456A4550000AD8B41BEF09F0A6EF08F04E
:101236004450000AD8B4AAEF08F0010AD8B4CCEF9B
:1012460008F0030AD8B4ECEF08F0A6EF08F0465011
:101256001200010E4A6E4350D8B434EF09F036EF4F
:1012660009F046EF09F04350D96EDA6ADF30E8320A
:10127600E832070B456E070E456444EF09F046EF6A
:1012860009F09DEF09F0000E4A6EB2EF09F04350E7
:10129600D96EDA6ADF30E832E832070B456E010EA6
:1012A600466E452A59EF09F0D8904636452E57EF37
:1012B60009F04650FF0A476E4350D96EDA6ADF508E
:1012C600070B020DF3500B0FD96EDA6ADECF48F02A
:1012D600DDCF49F048C0D9FF49C0DAFF4750DF16D5
:1012E600B2EF09F04350D96EDA6ADF30E832E832FD
:1012F600070B456E010E466E452A84EF09F0D8901D
:101306004636452E82EF09F04350D96EDA6ADF5031
:10131600070B020DF3500B0FD96EDA6ADECF47F0DA
:10132600DDCF48F047C0D9FF48C0DAFF4650DF128C
:10133600B2EF09F04450456E466A4650000AD8B4EA
:10134600A7EF09F046EF09F04550000AD8B44AEF76
:1013560009F0010AD8B475EF09F046EF09F04A50D2
:1013660012004550D8A4BAEF09F0BCEF09F0EBEF34
:1013760009F0000E486E09EF0AF04550D96EDA6A98
:10138600040ED926DECF43F0DDCF44F0C9EC0CF0D5
:10139600010E486E09EF0AF0010E486E4550D96EEF
:1013A600DA6A040ED926DECF43F0DDCF44F0B9EC7D
:1013B6000CF009EF0AF04550D96EDA6A040ED92608
:1013C600DECF43F0DDCF44F0A9EC0CF0CBEF09F013
:1013D6004550D96EDA6A020ED926DF50466E476A44
:1013E6004750000AD8B4FAEF09F0BCEF09F04650AE
:1013F600000AD8B4C0EF09F0010AD8B4CFEF09F05B
:10140600030AD8B4DEEF09F0BCEF09F04850120029
:101416000600FACF3DF0FBCF3EF0D9CF3FF0DACF52
:1014260040F0F3CF41F0F4CF42F0F2A81DEF0AF0FE
:101436001FEF0AF028EF0AF0F2A224EF0AF026EFD7
:101446000AF028EF0AF06DEC0CF0F0A62DEF0AF08A
:101456002FEF0AF038EF0AF0F0A034EF0AF036EF7B
:101466000AF038EF0AF056EC0CF0F0A83DEF0AF05F
:101476003FEF0AF048EF0AF0F0A244EF0AF046EF19
:101486000AF048EF0AF03FEC0CF042C0F4FF41C00E
:10149600F3FF40C0DAFF3FC0D9FF3EC0FBFF3DC0AF
:1014A600FAFF60921100010E396E3450D8B45EEF27
:1014B6000AF060EF0AF070EF0AF03450D96EDA6A7B
:1014C600DF30E832E832070B356E070E35646EEF13
:1014D6000AF070EF0AF074EF0AF0000E396E9AEF18
:1014E6000AF03450D96EDA6ADF30E832E832070B98
:1014F600356E010E366E352A83EF0AF0D8903636F1
:10150600352E81EF0AF03450D96EDA6ADF50070BB8
:10151600020DF3500B0FD96EDA6ADECF37F0DDCF4E
:1015260038F037C0D9FF38C0DAFF3650DF1A3950E5
:1015360012004350D8A4A2EF0AF0A4EF0AF0B9EFC4
:101546000AF0000E466ED7EF0AF0F288F28EF28CA1
:10155600010E466ED7EF0AF0F086F28EF28CABEFF4
:101566000AF0F088F28EF28CABEF0AF04350D96E97
:10157600DA6A020ED926DF50446E456A4550000AE3
:10158600D8B4C8EF0AF0A4EF0AF04450000AD8B461
:10159600A8EF0AF0010AD8B4AFEF0AF0030AD8B4EC
:1015A600B4EF0AF0A4EF0AF0465012004350D8A454
:1015B600DFEF0AF0E1EF0AF0F0EF0AF0000E466EF8
:1015C6000EEF0BF0F292010E466E0EEF0BF0F0905E
:1015D600E6EF0AF0F092E6EF0AF04350D96EDA6AC7
:1015E600020ED926DF50446E456A4550000AD8B42B
:1015F600FFEF0AF0E1EF0AF04450000AD8B4E5EF35
:101606000AF0010AD8B4EAEF0AF0030AD8B4EDEFFB
:101616000AF0E1EF0AF0465012004350D8A416EF44
:101626000BF018EF0BF027EF0BF0000E466E45EFB0
:101636000BF0F298010E466E45EF0BF0F0961DEF9B
:101646000BF0F0981DEF0BF04350D96EDA6A020EDC
:10165600D926DF50446E456A4550000AD8B436EFA5
:101666000BF018EF0BF04450000AD8B41CEF0BF047
:10167600010AD8B421EF0BF0030AD8B424EF0BF01B
:1016860018EF0BF0465012004E50D8A44DEF0BF059
:101696004FEF0BF051EF0BF07BEF0BF05EC050F00D
:1016A6004E50D96EDA6ADF50070B4F6E50504F1806
:1016B600F80B4F18506E4E50D96EDA6ADF30E832AA
:1016C600E832070B4F6E4F464F464F4650504F1865
:1016D600C70B4F18506E509C4E50D96EDA6ADFAC6D
:1016E60002D0508E01D0509E500E4B6EB1EC0BF0D6
:1016F60012003A50D8A482EF0BF084EF0BF086EF7D
:101706000BF0B0EF0BF05BC03CF03A50D96EDA6AE2
:10171600DF50070B3B6E3C503B18F80B3B183C6EFA
:101726003A50D96EDA6ADF30E832E832070B3B6EA0
:101736003B463B463B463C503B18C70B3B183C6E72
:101746003C9C3A50D96EDA6ADFAC02D03C8E01D0AE
:101756003C9E3C0E346E56EC0AF012004B50D8B448
:10176600B7EF0BF0B9EF0BF0C9EF0BF04B50D96E9A
:10177600DA6ADF30E832E832070B4C6E070E4C644B
:10178600C7EF0BF0C9EF0BF0CDEF0BF0000E4D6E6F
:10179600DEEF0BF04BC043F00BEC08F04D6E4BC088
:1017A60043F04B50D96EDA6A000EDFBE010E446E6E
:1017B6002CEC09F04D6E4D5012004C50D8A4E6EFBB
:1017C6000BF0E8EF0BF0ECEF0BF0000E4D6E08EFB0
:1017D6000CF04CC043F010EC0BF04D6E4CC043F0D7
:1017E600D9EC0AF04D6E4CC043F09EEC08F04D6EFD
:1017F6004CC04AF084EC0CF04CC045F0B4EC09F057
:101806004CC043F09CEC0AF04D6E4D5012004A0E4F
:10181600F66E180EF76E000EF86E00EE01F010EE82
:1018260033F00900F5CFEEFFE550E150FAE100EEA6
:1018360051F00E0EEE6AE806FDE16090609200013E
:10184600E6EF0CF0800F810F820F830F840F890F54
:101856008A0F8B0F8C0F8D0F920F930F940F950F8E
:10186600960F51010201EC1949000100D8194101F6
:071876000001E219120A0251
:10187E00F09251505210D8B447EF0CF049EF0CF0E3
:10188E0055EF0CF002D855EF0CF00500FA6E5150E2
:10189E00FD6E5250FE6EFF6AFA5012001200F0906A
:1018AE0053505410D8B45EEF0CF060EF0CF06CEFA8
:1018BE000CF002D86CEF0CF00500FA6E5350FD6E72
:1018CE005450FE6EFF6AFA5012001200F2925550FA
:1018DE005610D8B475EF0CF077EF0CF083EF0CF0D8
:1018EE0002D883EF0CF00500FA6E5550FD6E56507F
:1018FE00FE6EFF6AFA50120012004A50D8A48AEF08
:10190E000CF08CEF0CF090EF0CF0000E4B6E95EF90
:10191E000CF04AC043F00BEC08F04B6E4B5012002B
:10192E002B0E4C6EE0EC0BF05F6E250E4C6EE0EC69
:10193E000BF05F6E1F0E4C6EE0EC0BF05F6ED9EC91
:10194E000CF0120043504410D8A4B0EF0CF0B2EFDC
:10195E000CF0B4EF0CF0B8EF0CF043C051F044C0F3
:10196E0052F0120043504410D8A4C0EF0CF0C2EF56
:10197E000CF0C4EF0CF0C8EF0CF043C053F044C0B1
:10198E0054F0120043504410D8A4D0EF0CF0D2EF14
:10199E000CF0D4EF0CF0D8EF0CF043C055F044C06F
:1019AE0056F01200330E4E6E47EC0BF0320E4E6EAA
:1019BE0047EC0BF0310E4E6E47EC0BF0120097EC2D
:1019CE000CF0E8EF0CF007EF00F0320E3A6E7CEC04
:1019DE000BF01200330E3A6E7CEC0BF01200310E4F
:0819EE003A6E7CEC0BF01200D4
:020000040020DA
:08000000FFFFFFFFFFFFFFFF00
:020000040030CA
:0E000000FF02091EFF8181FF0FC00FE00F40BD
:00000001FF
